:020000040800F2
:1000000000800020F9020008FF0200080303000836
:100010007503000879030008C10300080000000010
:1000200000000000000000000000000009040008BB
:100030000D04000800000000110400081504000869
:1000400025040008250400082504000825040008EC
:1000500025040008250400082504000825040008DC
:1000600025040008250400082504000825040008CC
:1000700025040008250400082504000825040008BC
:1000800025040008250400082504000800000000DD
:10009000000000000000000000000000250400082F
:1000A000250400082504000825040008250400088C
:1000B000000000000000000000000000250400080F
:1000C000250400082504000825040008250400086C
:1000D000250400082504000825040008000000008D
:1000E00025040008250400080000000000000000AE
:1000F00000000000000000000000000025040008CF
:1001000000000000000000002504000800000000BE
:1001100000000000000000002504000800000000AE
:10012000250400082504000825040008250400080B
:10013000250400080000000000000000000000008E
:1001400000000000000000000000000000000000AF
:1001500025040008250400082504000825040008DB
:10016000000000000000000000000000000000008F
:10017000000000000000000000000000000000007F
:10018000250400082504000800000000000000000D
:10019000000000002504000800000000000000002E
:1001A000000000000000000000000000000000004F
:1001B000000000000000000000000000250400080E
:1001C000250400082504000800B583B000F018FFDE
:1001D000384B394A1360394A1360394906E052F8FE
:1001E000041B43F8041B9842F9D86146354B9942E9
:1001F00005D20A684B6801F10C0C8868F3E72E4BB6
:100200001A68314B9A4200D0FEE72C4B1A682F4BEC
:100210009A42F9D1274B2E4A13602E4A13602E4A78
:1002200000E002462D4B9A4209D2104650F8083B96
:1002300051689942F5D9002243F8042BF9E7244B81
:100240001B6813B9234B1B6803B1FEE700F08CFF5A
:10025000694601A800F0F2FD214C224BE41AA410DB
:10026000002504E01F4B53F8253098470135AC4278
:10027000F8DC1D4C1D4BE41AA410002504E01B4BB8
:1002800053F8253098470135AC42F8DC00990198C5
:1002900000F0AEFF0546164C164BE41AA41004E01D
:1002A000013C144B53F824309847002CF8DC2846C6
:1002B00000F0A0FDBABADECA000000207C000020D9
:1002C0002804000840040008785634123254769806
:1002D00080000020A801002040040008500400080D
:1002E000500400085004000850040008500400089E
:1002F000500400085004000808B5FFF765FF00BE71
:10030000FEE71EF0040F0CBFEFF30880EFF3098047
:100310007146414A10472DE9F04182B004460D462E
:10032000124B5F6BD3F838809E6A1B6B13F0020F81
:1003300003D00E4BDB6A002B0BDB0D4800F0BCFD3D
:10034000009543463A463146204600F0CFFD00BEB8
:10035000FEE74BF6AB6100F043FE0028EDD0034B07
:100360004FF00042DA6202B0BDE8F08100ED00E03B
:100370007836000800BEFEE71EF0040F0CBFEFF356
:100380000880EFF309807146244A10472DE9F041B7
:1003900082B004460D46084B5F6BD3F838809E6AE6
:1003A000064800F089FD009543463A46314620460E
:1003B00000F09CFD00BEFEE700ED00E0883600087E
:1003C0001EF0040F0CBFEFF30880EFF309807146B5
:1003D000134A10472DE9F04182B004460D46084B00
:1003E0005F6BD3F838809E6A064800F065FD009583
:1003F00043463A463146204600F078FD00BEFEE70F
:1004000000ED00E09436000800BEFEE700BEFEE707
:1004100000BEFEE770470000170300088D030008C8
:08042000D503000800BEFEE751
:1004280060370008000000208000002060370008C6
:10043800000000100000001080000020AC01002027
:0804480000000010000000108C
:1004500010B504460E4B18784FF47A73B3FBF0F3E3
:100460000C4A1068B0FBF3F000F09CF868B90F2C50
:1004700001D901200AE0002221464FF0FF3000F0B0
:100480004BF8054B1C60002000E0012010BD00BFB0
:1004900004000020140000200800002008B50B4BC9
:1004A0001A6842F400721A601A6842F480621A6094
:1004B0001A6842F480721A60032000F00FF80F20CF
:1004C000FFF7C6FF01F06EFA002008BD003C0240B5
:1004D000014B1868704700BF8400002010B5044627
:1004E000C31E042B0FD80A4AD36823F4E0631B040D
:1004F0001B0C240204F4E064234343F0BF6343F481
:100500000033D36010BD9221024800F035FEEAE7C7
:1005100000ED00E0F834000870B505460C461646BC
:100520000F2A25D80F2C28D81B4BDB68C3F30223D6
:10053000C3F10701042928BF04211A1D062A21D965
:10054000033B4FF0FF3202FA01F124EA01049C4020
:1005500002FA03F326EA03063443002D14DB2401D8
:10056000E4B205F1604505F5614585F8004370BDCD
:10057000AA210A4800F000FED4E7AB21074800F0AA
:10058000FBFDD1E70023DCE705F00F052401E4B211
:10059000034B5C55EBE700BF00ED00E0F8340008CA
:1005A00014ED00E00138B0F1807F0BD24FF0E02372
:1005B0005861054AF02182F8231000209861072233
:1005C0001A6170470120704700ED00E010B5044645
:1005D000042800D040B9042C0CD04FF0E02213695D
:1005E00023F00403136110BD40F2C911054800F067
:1005F000C3FDF0E74FF0E022136943F004031361F9
:10060000F1E700BFF8340008002800F0588270B508
:1006100082B0044603680F2B39D8236813F0010F0A
:100620004DD063682BB1B3F5803F02D0B3F5A02F56
:1006300032D1804B9B6803F00C03042B36D07D4BEA
:100640009B6803F00C03082B2BD06368B3F5803F45
:100650005FD0B3F5A02F62D0764B1A6822F48032B7
:100660001A601A6822F480221A606368002B60D036
:10067000FFF72EFF05466F4B1B6813F4003F1ED19A
:10068000FFF726FF401B6428F5D903201EE2E8216E
:10069000694800F071FDC0E7ED21674800F06CFD8E
:1006A000C7E7644B5B6813F4800FCED0614B1B68C7
:1006B00013F4003F03D06368002B00F0028223682C
:1006C00013F0020F66D0E368012B41D823691F2B7A
:1006D00044D8584B9B6813F00C0F4AD0554B9B687D
:1006E00003F00C03082B3FD0E368002B77D0534B6B
:1006F00001221A60FFF7ECFE05464E4B1B6813F013
:10070000020F63D1FFF7E4FE401B0228F5D9032056
:10071000DCE1484A136843F480331360A5E7454B96
:100720001A6842F480221A601A6842F480321A6011
:100730009BE7FFF7CDFE05463E4B1B6813F4003FD9
:10074000BDD0FFF7C5FE401B6428F5D90320BDE1ED
:1007500040F21F11384800F00FFDB7E74FF49071D9
:10076000354800F009FDB4E7324B5B6813F4800FA5
:10077000BAD1304B1B6813F0020F03D0E368012B92
:1007800040F0A1812B4A136823F0F803216943EA62
:10079000C1031360236813F0080F51D06369012B64
:1007A0002FD863699BB3254B0122C3F8802EFFF736
:1007B0008FFE05461F4B5B6F13F0020F40D1FFF712
:1007C00087FE401B0228F5D903207FE1194A1368F0
:1007D00023F0F803216943EAC1031360DAE7174BFA
:1007E00000221A60FFF774FE0546124B1B6813F0D7
:1007F000020FCFD0FFF76CFE401B0228F5D9032073
:1008000064E14FF4B0710C4800F0B6FCC9E70B4B43
:100810000022C3F8802EFFF75BFE0546054B5B6F99
:1008200013F0020F0CD0FFF753FE401B0228F5D93E
:1008300003204BE1003802402C35000800004742FD
:10084000236813F0040F7CD0A368012B01D9052B7A
:1008500038D1A34B1B6C13F0805F39D10023019377
:100860009F4B1A6C42F080521A641B6C03F0805349
:100870000193019B01259B4B1B6813F4807F29D0BA
:10088000A368012B3AD0052B3ED0954B1A6F22F06E
:1008900001021A671A6F22F004021A67A368002B7C
:1008A0003CD0FFF715FE06468D4B1B6F13F0020F71
:1008B00045D1FFF70DFE801B41F288339842F3D9F2
:1008C000032003E14FF4C671874800F055FCC0E7F0
:1008D0000025D0E7834A136843F480731360FFF761
:1008E000F7FD06467F4B1B6813F4807FC8D1FFF7E6
:1008F000EFFD801B0228F5D90320E7E0784A136F4B
:1009000043F001031367C9E7754B1A6F42F0040205
:100910001A671A6F42F001021A67BFE7FFF7D8FDA6
:1009200006466F4B1B6F13F0020F08D0FFF7D0FD88
:10093000801B41F288339842F3D90320C6E0002D92
:100940003BD1A369022B3ED8A369002B00F0BD80E8
:10095000634A926802F00C02082A00F09080022B91
:1009600079D1E36913B1B3F5800F32D1236A3F2BFC
:1009700035D8636A323BB3F5BF7F36D8A36A022B02
:1009800005D0042B03D0062B01D0082B33D1E36A0A
:10099000023B0D2B35D8554B00221A66FFF798FD08
:1009A00005464F4B1B6813F0007F30D0FFF790FDDA
:1009B000401B0228F5D9032088E0494A136C23F034
:1009C00080531364BDE740F2CF11474800F0D4FBD9
:1009D000BAE74FF4EC71444800F0CEFBC6E740F2B2
:1009E000D911414800F0C8FBC3E74FF4ED713E4810
:1009F00000F0C2FBC2E740F2DB113B4800F0BCFB59
:100A0000C5E74FF4EE71384800F0B6FBC3E7E36981
:100A1000226A1343626A43EA8213A26A5208013AC5
:100A200043EA0243E26A43EA02632D4A53602F4BD2
:100A300001221A66FFF74CFD0446294B1B6813F090
:100A4000007F06D1FFF744FD001B0228F5D90320E3
:100A50003CE000203AE0254B00221A66FFF738FD03
:100A600004461F4B1B6813F0007F06D0FFF730FDD4
:100A7000001B0228F5D9032028E0002026E0012BE6
:100A800026D0174B5B6803F48001E269914221D1C3
:100A900003F03F02216A8A421ED1616A47F6C072A2
:100AA0001A408A421AD103F44032A16A8A421FD105
:100AB00003F07063E26A93421CD1002006E001203B
:100AC0007047012002E0012000E0002002B070BD6C
:100AD0000120FBE70120F9E70120F7E70120F5E716
:100AE00000380240007000402C35000800004742EA
:100AF0000120EBE70120E9E708B5314B9B6803F0E3
:100B00000C03042B57D0082B57D12D4B5A6802F0F9
:100B10003F025B6813F4800F2AD0294B5968C1F358
:100B2000881C4FEA4C11B1EB0C006EEB0E0E4FEA35
:100B30008E1343EA90638101091A63EB0E03DB0015
:100B400043EA5173C90011EB0C0C43F10003590245
:100B500000234FEA4C2041EADC5101F047FE184BDC
:100B60005B68C3F3014301335B00B0FBF3F025E0A6
:100B7000134B5968C1F3881C4FEA4C11B1EB0C00C0
:100B80006EEB0E0E4FEA8E1343EA90638101091A51
:100B900063EB0E03DB0043EA5173C90011EB0C0C4D
:100BA00043F10003990200234FEA8C2041EA9C5153
:100BB00001F01CFED3E7034800E0034808BD00BF76
:100BC0000038024000127A000024F400002800F0EF
:100BD000F78070B50D4604460368013B0E2B6BD8B9
:100BE000072D6FD87A4B1B6803F00F03AB4208D276
:100BF000EBB2774A1370136803F00F03AB4240F077
:100C0000E180236813F0020F29D013F0040F04D001
:100C1000704A936843F4E0539360236813F0080F1D
:100C200004D06C4A936843F460439360A3687BB13B
:100C3000802B0DD0902B0BD0A02B09D0B02B07D040
:100C4000C02B05D0D02B03D0E02B01D0F02B3FD10F
:100C5000604A936823F0F003A1680B439360236814
:100C600013F0010F4ED06368032B37D86368012B54
:100C70003AD09A1E012A3ED9564A126812F0020F43
:100C800000F0A28053498A6822F0030213438B606C
:100C9000FFF71EFC06464F4B9B6803F00C0362688F
:100CA000B3EB820F2ED0FFF713FC801B41F2883389
:100CB0009842F0D9032076E040F25121464800F0F6
:100CC0005BFA8DE740F25221434800F055FA89E77C
:100CD00040F27521404800F04FFAB9E74FF41F7118
:100CE0003D4800F049FAC1E73A4A126812F4003F61
:100CF000C8D1012057E0374A126812F0007FC1D1F5
:100D0000012050E0324B1B6803F00F03AB4207D9C0
:100D1000EAB22F4B1A701B6803F00F03AB4255D198
:100D2000236813F0040F14D0E3685BB1B3F5805F60
:100D300008D0B3F5A05F05D0B3F5C05F02D0B3F51E
:100D4000E05F31D1234A936823F4E053E1680B4319
:100D50009360236813F0080F15D023695BB1B3F5D6
:100D6000805F08D0B3F5A05F05D0B3F5C05F02D0B7
:100D7000B3F5E05F1ED1174A936823F460432169FD
:100D800043EAC1039360FFF7B7FE124B9B68C3F3BE
:100D90000313124AD35CD840114B1860114B1868EA
:100DA000FFF756FB002070BD40F2BA210A4800F060
:100DB000E3F9C7E740F2C121074800F0DDF9DAE7BF
:100DC000012070470120EEE70120ECE70120EAE76F
:100DD000003C0240003802402C350008A4360008D0
:100DE0001400002008000020014B1868704700BF65
:100DF00014000020FEE7000008B503460C4A126804
:100E00005AB10B4A1068033323F003030344094A21
:100E1000934206D8064A136008BD054A0649116088
:100E2000EFE701F065FE0C2303604FF0FF30F3E7BE
:100E300088000020007C0020AC010020012303601A
:100E4000014B0B60704700BF0C0000202DE9F04300
:100E500085B004460F4643563BBB04252846214631
:100E6000ABBE0446384605B0BDE8F08314F901CBAB
:100E700003F110026A4402F810CC0133AB42F5D3FF
:100E800010336B44002203F8102C4FF00408E9469D
:100E900040464946ABBE8046761B002EE2D0354622
:100EA000102E28BF10250023E8E70E46F5E708B509
:100EB000FFF7CCFF08BD00000FB400B583B004AB52
:100EC00053F8042B01938021074801F06BFE0028A2
:100ED00004DC03B05DF804EB04B07047014602483F
:100EE000FFF7E5FFF5E700BF94000020F8B50446E2
:100EF0000D4617461E462748FFF7DEFF21682648A5
:100F0000FFF7DAFF61682548FFF7D6FFA16824489C
:100F1000FFF7D2FFE1682348FFF7CEFF216922489F
:100F2000FFF7CAFF61692148FFF7C6FFA1692048A2
:100F3000FFF7C2FFE1691F48FFF7BEFF1E48FFF73A
:100F4000BBFF29461D48FFF7B7FF1D4CE16A1D484E
:100F5000FFF7B2FF216B1C48FFF7AEFFE16B1B48A8
:100F6000FFF7AAFF15F0800F0AD115F4004F0CD13E
:100F70001748FFF7A1FF06991648FFF79DFFF8BD38
:100F800039461548FFF798FFEFE731461348FFF75A
:100F900093FFEDE75C3500086C3500087C350008F0
:100FA0008C3500089C350008AC350008BC350008BD
:100FB000CC350008DC350008EC350008F8350008B1
:100FC00000ED00E008360008183600082836000852
:100FD00058360008603600083836000848360008E1
:100FE00083691A888A4201D0002070470268033A58
:100FF000012A01D900207047023383610120704724
:1010000008B500F009F8024A024B9A6008BD00BF1B
:101010000000000800ED00E0024B4FF000629A6013
:10102000704700BF00ED00E0224B9B6803F00C030B
:10103000042B14D0082B16D01BB11F4B1F4A1A606B
:1010400002E01D4B1D4A1A601A4B9B68C3F3031341
:101050001B4AD15C184A1368CB4013607047164B8B
:10106000184A1A60F0E7134B59685A6802F03F02B9
:1010700011F4800F13D0134BB3FBF2F30D4A5268F7
:10108000C2F3881202FB03F30A4A5268C2F3014218
:1010900001325200B3FBF2F3074A1360D4E7074B67
:1010A000B3FBF2F3034A5268C2F3881202FB03F364
:1010B000EAE700BF00380240140000200024F400DA
:1010C000A436000800127A0070B594B00024009491
:1010D000224B1A6C42F080521A641B6C03F080534E
:1010E0000093009B01941E4B1A6842F440421A6020
:1010F0001B6803F440430193019B012307934FF4C2
:10110000803308934FF480030E9308230F934FF41A
:10111000A8731093042511950723129302260D96A8
:1011200007A8FFF771FA0F230293039604944FF474
:10113000A05305934FF480530693052102A8FFF7AF
:1011400045FDFFF751FE074BA3FB00308009FFF779
:1011500029FA2846FFF73AFA14B070BD0038024069
:1011600000700040D34D621008B5FFF797F9FFF704
:10117000ABFFFFF759FF08BD08B50A460146024814
:10118000FFF79AFEFEE700BFB436000830B587B01F
:1011900000230193134A516C41F480715164526CE5
:1011A00002F480720192019A0F4C104A226063602F
:1011B000A36023610125257684F82030E360E56192
:1011C00084F830306361204600F020F91023029348
:1011D00003950723049302A9204600F0FDFA07B007
:1011E00030BD00BF00380240140100200020014043
:1011F00030B587B0FFF752F9FFF7C8FF254800F078
:10120000F7F9244C4FF0FF31204600F08BFA2046CE
:1012100000F0DEFA84B2204601F040F91E4901F0E8
:1012200049FA1E4901F092F900F0C8FD00221C4B5A
:1012300000F064FC00221B4B00F042FF00221A4B1E
:1012400000F05EFC01F024F805462246174901A88B
:1012500001F054FC01A801F071FC154C4FF0FF3374
:1012600082B201A9204600F0D4FB284600F0A6FD7A
:1012700002460B460F4901A801F040FC01A801F00D
:101280005DFC4FF0FF3382B201A9204600F0C1FBA4
:10129000B7E700BF1401002000F07F4500803B4508
:1012A00000C087400000044000003940E4360008D8
:1012B0005C010020F436000810B504464F4B5A6814
:1012C00022F440325A605A6841680A435A60026800
:1012D000536823F48073536002685368016943EADA
:1012E000012353600268536823F04073536002681F
:1012F000536881680B4353600268936823F400636A
:10130000936002689368C1680B439360826A3C4BA8
:101310009A425BD00268936823F07063936002681E
:101320009368816A0B4393600268936823F040538B
:10133000936002689368C16A0B4393602268936864
:1013400023F00203936022689368217E43EA4103FD
:10135000936094F82030002B49D0636A013B072B3F
:101360003FD82268536843F400635360226853688F
:1013700023F46043536021684B68626A013A43EA90
:1013800042334B602268D36A23F47003D36221682E
:10139000CB6AE269013A43EA0253CB62226893685E
:1013A00023F4007393602268936894F8301043EA42
:1013B000412393602268936823F4806393602268DA
:1013C0009368616943EA8123936010BD0268936862
:1013D00023F0706393600268936823F04053936036
:1013E000ACE740F275710748FFF7C6FEB9E722681F
:1013F000536823F400635360C4E700BF0023014037
:101400000100000F0837000870470000002800F0B6
:10141000E68010B504460268724B9A4204D040F24E
:1014200043117148FFF7A8FE636843B1B3F5803FED
:1014300005D0B3F5003F02D0B3F5403F71D1A368AA
:1014400043B1B3F1807F05D0B3F1007F02D0B3F197
:10145000407F6CD12369012B6FD8237E012B72D87A
:10146000A36A7BB3B3F1807F2CD0B3F1007F29D086
:10147000B3F1407F26D0B3F1806F23D0B3F1A06FDA
:1014800020D0B3F1C06F1DD0B3F1E06F1AD0B3F12B
:10149000006F17D0B3F1106F14D0B3F1206F11D0DB
:1014A000B3F1306F0ED0B3F1406F0BD0B3F1506F8A
:1014B00008D0B3F1606F05D0B3F1706F02D04B4A22
:1014C000934246D1E36813B1B3F5006F47D1E369A6
:1014D000013B0F2B49D894F83030012B4BD863696E
:1014E000022B4ED894F82030012B50D8A26A3F4BE3
:1014F0009A420AD0E36A43B1B3F1805F05D0B3F1F9
:10150000005F02D0B3F1405F47D1236C002B4AD07B
:10151000236C13F0100F4ED00120002384F83C30D0
:1015200010BD4FF4A2713048FFF726FE87E740F266
:1015300045112D48FFF720FE8CE74FF4A3712A4890
:10154000FFF71AFE89E740F247112748FFF714FE1C
:1015500086E74FF4A4712448FFF70EFEB2E740F28D
:1015600049112148FFF708FEB1E74FF4A5711E4865
:10157000FFF702FEAFE740F24B111B48FFF7FCFDFF
:10158000ADE74FF4A6711848FFF7F6FDAAE740F261
:101590004D111548FFF7F0FDA8E740F25111124830
:1015A000FFF7EAFDB1E72046FFF72EFF0023636453
:1015B00084F83C30ACE7236C23F4885323F0020317
:1015C00043F0020323642046FFF776FE00206064A8
:1015D000236C23F0030343F0010323649DE7012000
:1015E000704700BF00200140083700080100000FCD
:1015F00010B582B0044600230193037E012B24D84A
:10160000E36A43B1B3F1805F05D0B3F1005F02D06C
:10161000B3F1405F1FD194F83C30012B6FD0012310
:1016200084F83C3023689A6812F0010F1FD19A6841
:1016300042F001029A60364B1B68364AA2FB032334
:101640009B0C03EB430301930EE040F2D32132489D
:10165000FFF792FDD4E74FF435712F48FFF78CFD6B
:10166000D9E7019B013B0193019B002BF9D1226833
:10167000936813F0010F44D0236C23F4E06323F04C
:10168000010343F480732364536813F4806F05D01F
:10169000236C23F4405343F480532364236C13F4EA
:1016A000805F19D0636C23F006036364002384F821
:1016B0003C306FF022031360184B5B6813F01F0F70
:1016C0000DD123689A6812F0405F1DD19A6842F0EC
:1016D00080429A60002015E000236364E6E72368F7
:1016E0000F4A934201D000200CE09A6812F0405F4C
:1016F0000CD19A6842F080429A60002002E00220F9
:1017000000E0002002B010BD0020FBE70020F9E758
:101710001400002083DE1B4308370008002301402B
:101720000020014070B504460D4603689A6812F423
:10173000806F03D09B6813F4807F19D1FEF7C8FE39
:10174000064623681A6812F0020F1AD1B5F1FF3F5E
:10175000F7D025B1FEF7BCFE801BA842F1D9236C5F
:1017600043F004032364002384F83C3003202CE07E
:10177000036C43F020030364002380F83C30012015
:1017800023E06FF012021A60236C43F400732364A9
:1017900023689A6812F0405F16D1207EB0B9DA6AE9
:1017A00012F4700F03D09B6813F4806F0DD1236C7B
:1017B00023F480732364236C13F4805F05D1236CBE
:1017C00043F00103236400E0002070BD0020FCE72B
:1017D0000368D86C7047000030B583B005460C46EE
:1017E000002301930B68122B4ED86368013B0F2B2B
:1017F00050D8A368072B53D895F83C30012B00F044
:10180000C780012385F83C302368092B4ED928680E
:10181000C2689BB203EB43031E3B072101FA03F3AB
:1018200022EA0303C3602868C268A168238803EB27
:1018300043031E3B01FA03F31343C3606368062BA3
:101840004AD82868426B03EB8303053B1F2101FA4A
:1018500003F322EA030343632868426B636803EBE4
:101860008303053B218801FA03F3134343632A688A
:10187000484B9A4260D02A68464B9A4265D0002075
:1018800085F83C0003B030BD4FF4CB614248FFF710
:1018900073FCAAE740F259613F48FFF76DFCA8E7E7
:1018A00040F25A613C48FFF767FCA5E728680269E7
:1018B0009BB203EB4303072101FA03F322EA03037C
:1018C000036128680269A168238803EB430301FAD6
:1018D00003F313430361B1E70C2B16D82868026B9E
:1018E00003EB8303233B1F2101FA03F322EA0303E3
:1018F00003632868026B636803EB8303233B21883F
:1019000001FA03F313430363B1E72868C26A03EBE8
:101910008303413B1F2101FA03F322EA0303C3625D
:101920002868C26A636803EB8303413B218801FA9C
:1019300003F31343C3629AE72368122B9BD1174A20
:10194000536843F48003536095E72368103B012BF1
:1019500095D8124A536843F4000353602368102B50
:101960008DD10F4B1B6802F1467202F52E3202F246
:101970008332A2FB03239B0C03EB83035B000193E5
:1019800002E0019B013B0193019B002BF9D176E71B
:10199000022077E7002001400837000800230140BB
:1019A0001400002070472DE9F84305460F461646FF
:1019B0009946DDF820802C68246837EA04030CBFC0
:1019C0004FF0010C4FF0000CB4451FD1B8F1FF3FB0
:1019D000F1D0B8F1000F05D0FEF77AFDA0EB0900B9
:1019E0004045E8D92A68D36823F4D073D3602A68C5
:1019F000536923F001035361202385F8393085F8BA
:101A00003A30002385F83830032000E00020BDE89C
:101A1000F8832DE9F04383B01E4690F83930DBB2ED
:101A2000202B56D104460D469046002955D0002A59
:101A300055D090F83830012B53D0012380F838303E
:101A40004FF00009C0F83C90212380F83930FEF7B0
:101A50003FFD0746A4F82480A4F8268084F8389037
:101A600010E000963B46002280212046FFF79BFFB6
:101A7000002838D12B882268C3F3080353602369F8
:101A8000CBB90235E38C9BB2BBB1E28C92B2013A86
:101A900092B2E284A368B3F5805FE2D000963B4641
:101AA000002280212046FFF77EFFF0B915F8012BB8
:101AB00023685A60E6E70135E4E700963B460022DA
:101AC00040212046FFF76FFF88B9202384F8393082
:101AD00000E0022003B0BDE8F0830120FAE7012016
:101AE000F8E70220F6E70320F4E70320F2E70320FB
:101AF000F0E7000081F0004102E000BF83F0004306
:101B000030B54FEA41044FEA430594EA050F08BF98
:101B100090EA020F1FBF54EA000C55EA020C7FEA5C
:101B2000645C7FEA655C00F0E2804FEA5454D4EBD9
:101B30005555B8BF6D420CDD2C4480EA020281EAA3
:101B4000030382EA000083EA010180EA020281EADB
:101B50000303362D88BF30BD11F0004F4FEA01312D
:101B60004FF4801C4CEA113102D0404261EB41013C
:101B700013F0004F4FEA03334CEA133302D05242C2
:101B800063EB430394EA050F00F0A780A4F101047E
:101B9000D5F1200E0DDB02FA0EFC22FA05F28018B8
:101BA00041F1000103FA0EF2801843FA05F359419E
:101BB0000EE0A5F120050EF1200E012A03FA0EFC1D
:101BC00028BF4CF0020C43FA05F3C01851EBE37147
:101BD00001F0004507D54FF0000EDCF1000C7EEB64
:101BE00000006EEB0101B1F5801F1BD3B1F5001FA2
:101BF0000CD349085FEA30004FEA3C0C04F10104C1
:101C00004FEA445212F5800F80F09A80BCF1004FE9
:101C100008BF5FEA500C50F1000041EB045141EA6B
:101C2000050130BD5FEA4C0C404141EB0101013C34
:101C300028BFB1F5801FE9D291F0000F04BF014623
:101C40000020B1FA81F308BF2033A3F10B03B3F1F5
:101C500020020CDA0C3208DD02F1140CC2F10C0285
:101C600001FA0CF021FA02F10CE002F11402D8BFE3
:101C7000C2F1200C01FA02F120FA0CFCDCBF41EAAF
:101C80000C019040E41AA2BF01EB0451294330BD7E
:101C90006FEA04041F3C1CDA0C340EDC04F114045B
:101CA000C4F1200220FA04F001FA02F340EA030032
:101CB00021FA04F345EA030130BDC4F10C04C4F178
:101CC000200220FA02F001FA04F340EA0300294658
:101CD00030BD21FA04F0294630BD94F0000F83F4A2
:101CE000801306BF81F480110134013D4EE77FEA85
:101CF000645C18BF7FEA655C29D094EA050F08BFD1
:101D000090EA020F05D054EA000C04BF19461046B1
:101D100030BD91EA030F1EBF0021002030BD5FEAF5
:101D2000545C05D14000494128BF41F0004130BD1D
:101D300014F580043CBF01F5801130BD01F0004571
:101D400045F0FE4141F470014FF0000030BD7FEAE4
:101D5000645C1ABF194610467FEA655C1CBF0B46DF
:101D6000024650EA013406BF52EA033591EA030FF6
:101D700041F4002130BD00BF90F0000F04BF0021EE
:101D8000704730B54FF4806404F132044FF0000521
:101D90004FF0000150E700BF90F0000F04BF00219A
:101DA000704730B54FF4806404F1320410F0004500
:101DB00048BF40424FF000013EE700BF42004FEAFB
:101DC000E2014FEA31014FEA02701FBF12F07F4378
:101DD00093F07F4F81F06051704732F07F4208BF2F
:101DE000704793F07F4F04BF41F40021704730B536
:101DF0004FF4607401F0004521F000411CE700BF82
:101E000050EA010208BF704730B54FF000050AE004
:101E100050EA010208BF704730B511F0004502D505
:101E2000404261EB41014FF4806404F132045FEA07
:101E3000915C3FF4D8AE4FF003025FEADC0C18BFB0
:101E400003325FEADC0C18BF033202EBDC02C2F1A2
:101E5000200300FA03FC20FA02F001FA03FE40EA34
:101E60000E0021FA02F11444BDE600BF70B54FF038
:101E7000FF0C4CF4E06C1CEA11541DBF1CEA135516
:101E800094EA0C0F95EA0C0F00F0DEF82C4481EA7E
:101E9000030621EA4C5123EA4C5350EA013518BF9E
:101EA00052EA033541F4801143F4801338D0A0FB8B
:101EB00002CE4FF00005E1FB02E506F00042E0FB38
:101EC00003E54FF00006E1FB03569CF0000F18BF3E
:101ED0004EF0010EA4F1FF04B6F5007F64F54074E6
:101EE00004D25FEA4E0E6D4146EB060642EAC62179
:101EF00041EA55514FEAC52040EA5E504FEACE2EE6
:101F0000B4F1FD0C88BFBCF5E06F1ED8BEF1004FE8
:101F100008BF5FEA500E50F1000041EB045170BD64
:101F200006F0004646EA010140EA020081EA0301A8
:101F3000B4EB5C04C2BFD4EB0C0541EA045170BDA4
:101F400041F480114FF0000E013C00F3AB8014F11E
:101F5000360FDEBF002001F0004170BDC4F1000467
:101F6000203C35DA0C341BDC04F11404C4F12005E8
:101F700000FA05F320FA04F001FA05F240EA020043
:101F800001F0004221F0004110EBD37021FA04F679
:101F900042EB06015EEA430E08BF20EAD37070BD33
:101FA000C4F10C04C4F1200500FA04F320FA05F092
:101FB00001FA04F240EA020001F0004110EBD37094
:101FC00041F100015EEA430E08BF20EAD37070BD04
:101FD000C4F1200500FA05F24EEA020E20FA04F3DD
:101FE00001FA05F243EA020321FA04F001F000418C
:101FF00021FA04F220EA020000EBD3705EEA430EFD
:1020000008BF20EAD37070BD94F0000F0FD101F02B
:102010000046400041EB010111F4801F08BF013C64
:10202000F7D041EA060195F0000F18BF704703F0A2
:102030000046520043EB030313F4801F08BF013D29
:10204000F7D043EA0603704794EA0C0F0CEA1355E5
:1020500018BF95EA0C0F0CD050EA410618BF52EA9F
:102060004306D1D181EA030101F000414FF00000A5
:1020700070BD50EA410606BF1046194652EA4306B3
:1020800019D094EA0C0F02D150EA013613D195EA27
:102090000C0F05D152EA03361CBF104619460AD16F
:1020A00081EA030101F0004141F0FE4141F4700179
:1020B0004FF0000070BD41F0FE4141F4780170BD69
:1020C00070B54FF0FF0C4CF4E06C1CEA11541DBFCE
:1020D0001CEA135594EA0C0F95EA0C0F00F0A7F8D0
:1020E000A4EB050481EA030E52EA03354FEA0131FD
:1020F00000F088804FEA03334FF0805545EA131310
:1021000043EA12634FEA022245EA111545EA1065D7
:102110004FEA00260EF000419D4208BF964244F16E
:10212000FD0404F5407402D25B084FEA3202B61A8D
:1021300065EB03055B084FEA32024FF480104FF461
:10214000002CB6EB020E75EB030E22BFB61A7546D5
:1021500040EA0C005B084FEA3202B6EB020E75EB68
:10216000030E22BFB61A754640EA5C005B084FEAD0
:102170003202B6EB020E75EB030E22BFB61A75469D
:1021800040EA9C005B084FEA3202B6EB020E75EBA8
:10219000030E22BFB61A754640EADC0055EA060E69
:1021A00018D04FEA051545EA16754FEA06164FEAAC
:1021B000C30343EA52734FEAC2025FEA1C1CC0D158
:1021C00011F4801F0BD141EA00014FF000004FF0E5
:1021D000004CB6E711F4801F04BF01430020B4F1A6
:1021E000FD0C88BFBCF5E06F3FF6AFAEB5EB030C5E
:1021F00004BFB6EB020C5FEA500C50F1000041EB5B
:10220000045170BD0EF0004E4EEA113114EB5C0427
:10221000C2BFD4EB0C0541EA045170BD41F48011FA
:102220004FF0000E013C90E645EA060E8DE60CEA02
:10223000135594EA0C0F08BF95EA0C0F3FF43BAF1F
:1022400094EA0C0F0AD150EA01347FF434AF95EAD6
:102250000C0F7FF425AF104619462CE795EA0C0FBA
:1022600006D152EA03353FF4FDAE1046194622E787
:1022700050EA410618BF52EA43067FF4C5AE50EA61
:1022800041047FF40DAF52EA43057FF4EBAE12E751
:102290004FEA4102B2F1E04324BFB3F5001CDCF188
:1022A000FE5C0DD901F0004C4FEAC0024CEA5070C0
:1022B000B2F1004F40EB830008BF20F001007047EF
:1022C00011F0804F21D113F13872BCBF01F00040F2
:1022D000704741F480114FEA5252C2F11802C2F124
:1022E000200C10FA0CF320FA02F018BF40F00100A5
:1022F0004FEAC1234FEAD32303FA0CFC40EA0C0057
:1023000023FA02F34FEA4303CCE77FEA625307D193
:1023100050EA01331EBF4FF0FE4040F440007047CA
:1023200001F0004040F0FE4040F40000704700BF64
:1023300080F0004002E000BF81F0004142001FBF7A
:102340005FEA410392EA030F7FEA226C7FEA236C83
:102350006AD04FEA1262D2EB1363C1BFD218414078
:1023600048404140B8BF5B42192B88BF704710F00E
:10237000004F40F4000020F07F4018BF404211F0B1
:10238000004F41F4000121F07F4118BF494292EA19
:10239000030F3FD0A2F1010241FA03FC10EB0C0045
:1023A000C3F1200301FA03F100F0004302D54942D2
:1023B00060EB4000B0F5000F13D3B0F1807F06D37F
:1023C00040084FEA310102F10102FE2A51D2B1F177
:1023D000004F40EBC25008BF20F0010040EA03006C
:1023E0007047490040EB0000013A28BFB0F5000FEC
:1023F000EDD2B0FA80FCACF1080CB2EB0C0200FAA2
:102400000CF0AABF00EBC25052421843BCBFD040F0
:102410001843704792F0000F81F4000106BF80F46A
:1024200000000132013BB5E74FEA41037FEA226C2D
:1024300018BF7FEA236C21D092EA030F04D092F0F8
:10244000000F08BF0846704790EA010F1CBF00202C
:10245000704712F07F4F04D1400028BF40F0004089
:10246000704712F100723CBF00F50000704700F0A9
:10247000004343F0FE4040F4000070477FEA2262D0
:1024800016BF08467FEA23630146420206BF5FEAA1
:10249000412390EA010F40F4800070474FF00003A1
:1024A00004E000BF10F0004348BF40425FEA000C68
:1024B00008BF704743F0964301464FF000001CE010
:1024C00050EA010208BF70474FF000030AE000BF66
:1024D00050EA010208BF704711F0004302D54042A4
:1024E00061EB41015FEA010C02BF84460146002016
:1024F00043F0B64308BFA3F18053A3F50003BCFA31
:102500008CF2083AA3EBC25310DB01FA02FC6344DD
:1025100000FA02FCC2F12002BCF1004F20FA02F2E4
:1025200043EB020008BF20F00100704702F12002D7
:1025300001FA02FCC2F1200250EA4C0021FA02F238
:1025400043EB020008BF20EADC7070474FF0FF0C3D
:102550001CEAD0521EBF1CEAD15392EA0C0F93EA38
:102560000C0F6FD01A4480EA010C400218BF5FEADA
:1025700041211ED04FF0006343EA501043EA51114D
:10258000A0FB01310CF00040B1F5000F3EBF490047
:1025900041EAD3715B0040EA010062F17F02FD2A4B
:1025A0001DD8B3F1004F40EBC25008BF20F001002E
:1025B000704790F0000F0CF0004C08BF49024CEA45
:1025C000502040EA51207F3AC2BFD2F1FF0340EAD7
:1025D000C250704740F400004FF00003013A5DDC48
:1025E00012F1190FDCBF00F000407047C2F1000289
:1025F000410021FA02F1C2F1200200FA02FC5FEA76
:10260000310040F1000053EA4C0308BF20EADC70BF
:10261000704792F0000F00F0004C02BF400010F431
:10262000000F013AF9D040EA0C0093F0000F01F0DE
:10263000004C02BF490011F4000F013BF9D041EA00
:102640000C018FE70CEAD15392EA0C0F18BF93EA02
:102650000C0F0AD030F0004C18BF31F0004CD8D12C
:1026600080EA010000F00040704790F0000F17BFB3
:1026700090F0004F084691F0000F91F0004F14D0F9
:1026800092EA0C0F01D142020FD193EA0C0F03D151
:102690004B0218BF084608D180EA010000F0004054
:1026A00040F0FE4040F40000704740F0FE4040F42F
:1026B000400070474FF0FF0C1CEAD0521EBF1CEACE
:1026C000D15392EA0C0F93EA0C0F69D0A2EB0302EC
:1026D00080EA010C49024FEA402037D04FF0805386
:1026E00043EA111143EA10130CF000408B4238BF4B
:1026F0005B0042F17D024FF4000C8B4224BF5B1A59
:1027000040EA0C00B3EB510F24BFA3EB510340EAA6
:102710005C00B3EB910F24BFA3EB910340EA9C0054
:10272000B3EBD10F24BFA3EBD10340EADC001B01C4
:1027300018BF5FEA1C1CE0D1FD2A3FF650AF8B4268
:1027400040EBC25008BF20F0010070470CF0004C75
:102750004CEA50207F32C2BFD2F1FF0340EAC250A0
:10276000704740F400004FF00003013A37E792F061
:10277000000F00F0004C02BF400010F4000F013ABF
:10278000F9D040EA0C0093F0000F01F0004C02BFBA
:10279000490011F4000F013BF9D041EA0C0195E723
:1027A0000CEAD15392EA0C0F08D142027FF47DAFBC
:1027B00093EA0C0F7FF470AF084676E793EA0C0FAC
:1027C00004D14B023FF44CAF08466EE730F0004CAA
:1027D00018BF31F0004CCAD130F000427FF45CAF3A
:1027E00031F000437FF43CAF5FE700BF53B94AB913
:1027F000002908BF00281CBF4FF0FF314FF0FF3009
:1028000000F074B9ADF1080C6DE904CE00F006F8E3
:10281000DDF804E0DDE9022304B070472DE9F0475C
:10282000089E0D4604468846002B4DD18A429446A8
:1028300068D9B2FA82F252B101FA02F3C2F1200170
:1028400020FA01F10CFA02FC41EA030894404FEA35
:102850001C45210CB8FBF5FE1FFA8CF705FB1E8307
:1028600041EA03430EFB07F199420BD91CEB03032A
:102870000EF1FF3080F01E81994240F21B81AEF1D3
:10288000020E63445B1AA4B2B3FBF5F005FB1033F0
:1028900044EA034400FB07F7A7420AD91CEB0404EF
:1028A00000F1FF3380F00881A74240F205816444C3
:1028B0000238E41B40EA0E4000211EB1D440002340
:1028C000C6E90043BDE8F0878B4208D9002E00F02E
:1028D000EE800021C6E900050846BDE8F087B3FA9E
:1028E00083F100294AD1AB4202D3824200F2F9803F
:1028F000841A65EB030301209846002EE2D0C6E956
:102900000048DFE702B9FFDEB2FA82F2002A40F0A7
:102910009180A1EB0C054FEA1C471FFA8CFE0121A8
:10292000B5FBF7F307FB1350250C45EA00450EFBFA
:1029300003F0A84208D91CEB050503F1FF3802D2C9
:10294000A84200F2CB8043462D1AA4B2B5FBF7F0A3
:1029500007FB105544EA05440EFB00FEA64508D9C6
:102960001CEB040400F1FF3502D2A64500F2BB8047
:102970002846A4EB0E0440EA03409EE7C1F120077D
:102980008B4022FA07FC4CEA030C20FA07F405FA04
:1029900001F31C43FD404FEA1C4900FA01F3B5FB6B
:1029A000F9F8200C1FFA8CFE09FB185540EA054582
:1029B00008FB0EF0A84202FA01F20BD91CEB050548
:1029C00008F1FF3A80F08880A84240F28580A8F1A3
:1029D000020865442D1AA4B2B5FBF9F009FB1055A5
:1029E00044EA054500FB0EFEAE4508D91CEB050583
:1029F00000F1FF346CD2AE456AD90238654440EA32
:102A00000840A0FB0294A5EB0E05A542C846A646C9
:102A100056D353D05EB1B3EB080265EB0E0505FA51
:102A200007F722FA01F3CD401F43C6E900750021E4
:102A3000BDE8F087C2F1200320FA03F10CFA02FC92
:102A400025FA03F395400D434FEA1C471FFA8CFE0D
:102A5000B3FBF7F107FB11302B0C43EA004301FBFA
:102A60000EF0984204FA02F408D91CEB030301F1BA
:102A7000FF382FD298422DD9023963441B1AADB2C8
:102A8000B3FBF7F007FB103345EA034500FB0EF3F9
:102A9000AB4208D91CEB050500F1FF3816D2AB425A
:102AA00014D902386544ED1A40EA014138E731464D
:102AB000304607E78646E5E61846FAE64B45A9D2D2
:102AC000B9EB020864EB0C0E0138A3E74046EAE7D5
:102AD000204694E74146D1E7D0467BE7023B654478
:102AE00032E7084609E76444023842E7704700BF0E
:102AF000014B1868704700BF180000200EB400B5E5
:102B00009CB01DAB029006906FF000410948079100
:102B10000491094953F8042B05910068019302A917
:102B200000F0AAF8029B00221A701CB05DF804EBBA
:102B300003B07047180000200802FFFF034613F897
:102B4000012B002AFBD1181A0138704730B5144602
:102B5000002C9BB005461A4605DA8B2303604FF024
:102B6000FF301BB030BD4FF40273ADF80C3014BF12
:102B700004F1FF332346029305934FF6FF73009150
:102B80000491ADF80E3069461E9B00F075F8431CA9
:102B9000BCBF8B232B60002CE3D0009B00221A705B
:102BA000DFE7000007B5009313460A4601460348D5
:102BB0000068FFF7CBFF03B05DF804FB18000020AE
:102BC0002DE9F0478E689E4282460C4690461F468D
:102BD00038D88A8912F4906F32D025680969A5EB3C
:102BE0000109656905EB450505EBD57501334B44D6
:102BF0006D109D4238BF1D46530531D5294600F062
:102C0000B1FB064650B90C23CAF80030A38943F043
:102C10004003A3814FF0FF30BDE8F08721694A46A9
:102C200000F00EFBA38923F4906343F08003A3819B
:102C3000266165614E44A5EB09052660A5603E4608
:102C4000BE4200D93E4620683246414600F006FBAF
:102C5000A3689B1BA3602368334423600020DBE749
:102C60002A4600F0F3FB06460028E1D121695046D0
:102C700000F00EFBC7E700002DE9F04F98468B8966
:102C80001B069DB007460D4614460ED50B6963B969
:102C9000402100F067FB2860286120B90C233B60CD
:102CA0004FF0FF30D1E040236B61002309932023D4
:102CB0008DF82930CDF80C803023DFF8A8818DF80D
:102CC0002A304FF0010923469A4613F8012B0AB126
:102CD000252AF9D1BAEB040B0BD05B4622462946D4
:102CE0003846FFF76DFF013000F0AA80099A5A4478
:102CF00009929AF80030002B00F0A28000234FF0D8
:102D0000FF32CDE905230AF1010A049307938DF8F8
:102D100053301A935446052214F8011B514800F011
:102D20003FFA049AD8B9D00644BF20238DF8533017
:102D3000110744BF2B238DF853309AF800302A2B0B
:102D400015D0079A544600204FF00A0C214611F87E
:102D5000013B303B092B4ED9B0B1079214E0A0EBF8
:102D6000080309FA03F313430493A246D2E7039B33
:102D7000191D1B680391002BBBBF5B4242F002028E
:102D800007930793B8BF049223782E2B0CD1637856
:102D90002A2B35D1039B1A1D1B680392002BB8BF49
:102DA0004FF0FF3302340593DFF8BCA021780322F3
:102DB000504600F0F5F940B14023A0EB0A0003FAB9
:102DC00000F0049B03430134049314F8011B2748CB
:102DD0008DF82810062200F0E3F9002838D0244BA3
:102DE0001BBB039B073323F0070308330393099BA3
:102DF0003344099367E70CFB02320C460120A5E738
:102E000000230134059319464FF00A0C204610F8B0
:102E1000012B303A092A03D9002BC5D00591C3E70D
:102E20000CFB012104460123F0E703AB00932A4683
:102E3000104B04A93846AFF30080421C0646D6D199
:102E4000AB895B063FF52CAF09981DB0BDE8F08F4C
:102E500003AB00932A46074B04A9384600F07AF8E2
:102E6000EBE700BF23370008293700082D3700089B
:102E700000000000C12B00082DE9F04716469946D6
:102E80008A680B69DDF820809342B8BF134633602F
:102E900091F8432007460C460AB10133336023689A
:102EA000990642BF336802333360256815F0060582
:102EB00006D104F1190AE36832689B1AAB4226DC9A
:102EC00094F84320131E226818BF012392062BD4C6
:102ED00004F1430249463846C04701301ED02368FA
:102EE000E568326803F00603042B08BFAD1AA36837
:102EF00022690CBF25EAE57500259342C4BF9B1AE1
:102F0000ED1800261A34B5421AD1002008E001233A
:102F1000524649463846C047013003D14FF0FF3092
:102F2000BDE8F0870135C6E7E1185A1C302081F86A
:102F30004300224494F8451082F843100233C7E757
:102F40000123224649463846C0470130E6D00136C3
:102F5000D9E700002DE9FF470F7E0C9D782F9146A1
:102F600080460C469A4601F1430207D8622F0AD8E0
:102F7000002F00F0D880582F00F0A38004F1420504
:102F800084F842703AE0A7F16303152BF6D801A14B
:102F900051F823F0ED2F0008013000087D2F0008C4
:102FA0007D2F00087D2F00087D2F000801300008CC
:102FB0007D2F00087D2F00087D2F00087D2F000841
:102FC0000D31000831300008EF3000087D2F000877
:102FD0007D2F00082F3100087D2F000831300008B8
:102FE0007D2F00087D2F0008F73000082B681A1D80
:102FF0001B682A6004F1420584F842300123A3E0F3
:1030000020682968060601F104030AD50E682B60C2
:10301000002E03DA2D23764284F843305E480A23DB
:1030200019E00E682B6010F0400F18BF36B2EFE7C2
:103030002B682068191D2960010601D51E6802E071
:103040004606FBD51E8854486F2F0CBF08230A2361
:10305000002184F843106568A560002DA2BF216897
:1030600021F0040121600EB9002D4DD01546B6FBAC
:10307000F3F103FB1167C75D05F8017D3746BB42DD
:103080000E46F4D9082B0BD12368DE0708D5236937
:1030900061689942DEBF302305F8013C05F1FF3538
:1030A000521B2261CDF800A04B4603AA21464046A0
:1030B000FFF7E2FE01304CD14FF0FF3004B0BDE825
:1030C000F087354881F845702968236851F8046B0A
:1030D00029601D0614D5DF0744BF43F02003236099
:1030E0001EB9236823F0200323601023B0E7236870
:1030F00043F0200323607823284884F84530E3E731
:10310000590648BFB6B2E6E71546BBE72B68266806
:103110006169181D286035061B6801D5196002E039
:103120007006FBD51980002323611546BAE72B688A
:103130001A1D2A601D6862680021284600F030F8D8
:1031400008B1401B606063682361002384F843304A
:10315000A8E723692A4649464046D0470130ABD00C
:1031600023689B0713D4E068039B9842B8BF1846B6
:10317000A4E70123324649464046D04701309BD060
:103180000135E36803995B1AAB42F2DCEBE70025FB
:1031900004F11906F5E700BF343700084537000889
:1031A00001F0FF01102A2BDB10F0070F08D010F8F8
:1031B000013B013A8B422DD010F0070F42B3F6D1FC
:1031C000F0B441EA012141EA014122F007047FF015
:1031D00000070023F0E80256083C85EA010586EA6C
:1031E000010685FA47F5A3FA87F586FA47F6A5FAA8
:1031F00087F68EB9EED1F0BC01F0FF0102F00702B4
:1032000032B110F8013B013A83EA010313B1F8D15E
:103210000020704701387047002D06BF354603383F
:10322000073815F0010F07D1013015F4807F02BF78
:10323000013015F4C03F0130F0BC0138704700BFC9
:103240000A44914200F1FF3300D1704710B511F8E4
:10325000014B03F8014F9142F9D110BD884210B5DE
:1032600001EB020402D98442234607D8431EA1423F
:1032700008D011F8012B03F8012FF8E702440146AA
:103280008A4200D110BD13F8014D02F8014DF7E755
:1032900038B50546002941D051F8043C0C1F002BDD
:1032A000B8BFE41800F012F91D4A136833B963601F
:1032B00014602846BDE8384000F00EB9A34208D992
:1032C000206821188B4201BF19685B6809182160CA
:1032D000EDE71A465B680BB1A342FAD911685018A2
:1032E000A0420BD120680144501883421160E0D104
:1032F00018685B68536001441160DAE702D90C2357
:103300002B60D6E7206821188B4204BF19685B68E0
:10331000636004BF091821605460CAE738BD00BF6C
:103320009C01002070B50E4E0C463168054611B95F
:1033300000F0BCF830602146284600F0B7F8431C86
:103340000AD0C41C24F00304A04207D0211A284646
:1033500000F0ACF8013001D14FF0FF34204670BDD1
:10336000A00100202DE9F041CD1C25F00305083512
:103370000C2D38BF0C25002D074601DBA94205D9CD
:103380000C233B6000263046BDE8F0812E4E00F055
:103390009DF833681C4634BB29463846FFF7C2FF08
:1033A000431C04464DD134682646002E40D1236884
:1033B0003146384604EB030800F078F880453AD1EE
:1033C000216803356D1A25F0030508350C2D38BF2B
:1033D0000C2529463846FFF7A5FF01302BD023687E
:1033E0002B4423600EE02268521B1ED40B2A16D9F0
:1033F0006119A342256018BF5960636808BF316036
:1034000062514B60384604F10B0600F065F826F077
:103410000706231DF21AB6D09B1BA350B3E76268C0
:10342000A3420CBF32605A60ECE723466468B2E7FF
:1034300034467668B9E70C233B60384600F04CF818
:10344000A1E72560DEE700BF9C0100202DE9F041E7
:10345000804614460E4621B9BDE8F0411146FFF7FB
:1034600081BF2AB9FFF714FF25462846BDE8F08141
:1034700000F038F88442074602D8B4EB500F12D857
:1034800021464046FFF76EFF05460028EDD0BC42BE
:103490002246314628BF3A46FFF7D2FE3146404623
:1034A000FFF7F6FEE1E73546DFE7000038B5064DE9
:1034B0000023044608462B60FDF79EFC431C02D106
:1034C0002B6803B1236038BD8C000020014800F058
:1034D00011B800BFA4010020014800F00CB800BFE3
:1034E000A401002051F8043C181F002BBCBF0B584E
:1034F000C0187047704770472E2E2F73797374650C
:103500006D2F7372632F73746D333266342D68615F
:103510006C2F73746D3332663478785F68616C5FDA
:10352000636F727465782E63000000002E2E2F7377
:10353000797374656D2F7372632F73746D33326694
:10354000342D68616C2F73746D3332663478785F14
:1035500068616C5F7263632E630000005374616383
:103560006B206672616D653A0A00000020523020BF
:103570003D2020253038580A00000000205231201C
:103580003D2020253038580A00000000205232200B
:103590003D2020253038580A0000000020523320FA
:1035A0003D2020253038580A0000000020523132DA
:1035B000203D20253038580A00000000204C5220C1
:1035C0003D2020253038580A0000000020504320BC
:1035D0003D2020253038580A00000000205053526A
:1035E000203D20253038580A000000004653522F55
:1035F0004641523A0A0000002043465352203D20E3
:1036000020253038580A00002048465352203D20DB
:1036100020253038580A00002044465352203D20CF
:1036200020253038580A00002041465352203D20C2
:1036300020253038580A0000204D4D464152203D8B
:1036400020253038580A00002042464152203D20B3
:1036500020253038580A00004D6973630A000000C5
:10366000204C522F4558435F52455455524E3D20F1
:10367000253038580A0000005B4861726446617565
:103680006C745D0A000000005B4275734661756CE6
:10369000745D0A005B55736167654661756C745DA6
:1036A0000A00000000000000000000000102030406
:1036B0000607080957726F6E6720706172616D6549
:1036C000746572732076616C75653A2066696C6505
:1036D000202573206F6E206C696E652025640D0AAD
:1036E0000000000072617756616C75653A202568AC
:1036F000750D0A0054656D70657261747572653A76
:103700002025660D0A0000002E2E2F7372632F7382
:10371000746D3332663478785F68616C5F616463BE
:103720002E6300232D302B2000686C4C00656667EB
:103730004546470030313233343536373839414227
:1037400043444546003031323334353637383961F9
:063750006263646566007F
:08375800C4F0FF7F0100000036
:103760007856341201FFFFFF100000009000002087
:10377000000000000024F4001C00002000000000F5
:103780000000000000000000000000000000000039
:103790000000000000000000000000000000000029
:1037A0000000000000000000000000000000000019
:1037B0000000000000000000000000000000000009
:1037C00000000000000000000000000000000000F9
:1037D0000000000000000000000000003254769855
:04000005080001C925
:00000001FF
